{
  "_format": "hh-sol-artifact-1",
  "contractName": "Marketplace",
  "sourceName": "src/backend/contracts/Marketplace.sol",
  "abi": [
    {
      "inputs": [
        {
          "internalType": "uint256",
          "name": "_feePercent",
          "type": "uint256"
        }
      ],
      "stateMutability": "nonpayable",
      "type": "constructor"
    },
    {
      "anonymous": false,
      "inputs": [
        {
          "indexed": false,
          "internalType": "uint256",
          "name": "itemId",
          "type": "uint256"
        },
        {
          "indexed": true,
          "internalType": "address",
          "name": "nft",
          "type": "address"
        },
        {
          "indexed": false,
          "internalType": "uint256",
          "name": "tokenId",
          "type": "uint256"
        },
        {
          "indexed": false,
          "internalType": "uint256",
          "name": "price",
          "type": "uint256"
        },
        {
          "indexed": true,
          "internalType": "address",
          "name": "seller",
          "type": "address"
        },
        {
          "indexed": true,
          "internalType": "address",
          "name": "buyer",
          "type": "address"
        }
      ],
      "name": "Bought",
      "type": "event"
    },
    {
      "anonymous": false,
      "inputs": [
        {
          "indexed": false,
          "internalType": "address",
          "name": "Id",
          "type": "address"
        },
        {
          "indexed": false,
          "internalType": "string",
          "name": "name",
          "type": "string"
        },
        {
          "indexed": false,
          "internalType": "string",
          "name": "govtId",
          "type": "string"
        },
        {
          "indexed": false,
          "internalType": "string",
          "name": "location",
          "type": "string"
        },
        {
          "indexed": false,
          "internalType": "string",
          "name": "landarea",
          "type": "string"
        },
        {
          "indexed": false,
          "internalType": "string",
          "name": "contact",
          "type": "string"
        },
        {
          "indexed": false,
          "internalType": "string",
          "name": "iotid",
          "type": "string"
        }
      ],
      "name": "FarmerAdded",
      "type": "event"
    },
    {
      "anonymous": false,
      "inputs": [
        {
          "indexed": false,
          "internalType": "uint256",
          "name": "itemId",
          "type": "uint256"
        },
        {
          "indexed": true,
          "internalType": "address",
          "name": "nft",
          "type": "address"
        },
        {
          "indexed": false,
          "internalType": "uint256",
          "name": "tokenId",
          "type": "uint256"
        },
        {
          "indexed": false,
          "internalType": "uint256",
          "name": "price",
          "type": "uint256"
        },
        {
          "indexed": true,
          "internalType": "address",
          "name": "seller",
          "type": "address"
        }
      ],
      "name": "Offered",
      "type": "event"
    },
    {
      "inputs": [
        {
          "internalType": "address",
          "name": "_id",
          "type": "address"
        },
        {
          "internalType": "string",
          "name": "_name",
          "type": "string"
        },
        {
          "internalType": "string",
          "name": "_govtId",
          "type": "string"
        },
        {
          "internalType": "string",
          "name": "_location",
          "type": "string"
        },
        {
          "internalType": "string",
          "name": "_area",
          "type": "string"
        },
        {
          "internalType": "string",
          "name": "_contact",
          "type": "string"
        },
        {
          "internalType": "string",
          "name": "_iotid",
          "type": "string"
        }
      ],
      "name": "create_Farmer",
      "outputs": [],
      "stateMutability": "nonpayable",
      "type": "function"
    },
    {
      "inputs": [
        {
          "internalType": "address",
          "name": "",
          "type": "address"
        }
      ],
      "name": "farmers",
      "outputs": [
        {
          "internalType": "address",
          "name": "Id",
          "type": "address"
        },
        {
          "internalType": "string",
          "name": "name",
          "type": "string"
        },
        {
          "internalType": "string",
          "name": "govtId",
          "type": "string"
        },
        {
          "internalType": "string",
          "name": "location",
          "type": "string"
        },
        {
          "internalType": "string",
          "name": "landarea",
          "type": "string"
        },
        {
          "internalType": "string",
          "name": "contact",
          "type": "string"
        },
        {
          "internalType": "string",
          "name": "iotid",
          "type": "string"
        }
      ],
      "stateMutability": "view",
      "type": "function"
    },
    {
      "inputs": [],
      "name": "feeAccount",
      "outputs": [
        {
          "internalType": "address payable",
          "name": "",
          "type": "address"
        }
      ],
      "stateMutability": "view",
      "type": "function"
    },
    {
      "inputs": [],
      "name": "feePercent",
      "outputs": [
        {
          "internalType": "uint256",
          "name": "",
          "type": "uint256"
        }
      ],
      "stateMutability": "view",
      "type": "function"
    },
    {
      "inputs": [
        {
          "internalType": "uint256",
          "name": "_itemId",
          "type": "uint256"
        }
      ],
      "name": "getTotalPrice",
      "outputs": [
        {
          "internalType": "uint256",
          "name": "",
          "type": "uint256"
        }
      ],
      "stateMutability": "view",
      "type": "function"
    },
    {
      "inputs": [],
      "name": "itemCount",
      "outputs": [
        {
          "internalType": "uint256",
          "name": "",
          "type": "uint256"
        }
      ],
      "stateMutability": "view",
      "type": "function"
    },
    {
      "inputs": [
        {
          "internalType": "uint256",
          "name": "",
          "type": "uint256"
        }
      ],
      "name": "items",
      "outputs": [
        {
          "internalType": "uint256",
          "name": "itemId",
          "type": "uint256"
        },
        {
          "internalType": "contract IERC721",
          "name": "nft",
          "type": "address"
        },
        {
          "internalType": "uint256",
          "name": "tokenId",
          "type": "uint256"
        },
        {
          "internalType": "uint256",
          "name": "price",
          "type": "uint256"
        },
        {
          "internalType": "address payable",
          "name": "seller",
          "type": "address"
        },
        {
          "internalType": "address",
          "name": "owner",
          "type": "address"
        },
        {
          "internalType": "bool",
          "name": "sold",
          "type": "bool"
        }
      ],
      "stateMutability": "view",
      "type": "function"
    },
    {
      "inputs": [
        {
          "internalType": "contract IERC721",
          "name": "_nft",
          "type": "address"
        },
        {
          "internalType": "uint256",
          "name": "_tokenId",
          "type": "uint256"
        },
        {
          "internalType": "uint256",
          "name": "_price",
          "type": "uint256"
        }
      ],
      "name": "makeItem",
      "outputs": [],
      "stateMutability": "nonpayable",
      "type": "function"
    },
    {
      "inputs": [
        {
          "internalType": "uint256",
          "name": "_itemId",
          "type": "uint256"
        }
      ],
      "name": "purchaseItem",
      "outputs": [],
      "stateMutability": "payable",
      "type": "function"
    }
  ],
  "bytecode": "0x60c06040523480156200001157600080fd5b5060405162001d0a38038062001d0a83398181016040528101906200003791906200009c565b60016000819055503373ffffffffffffffffffffffffffffffffffffffff1660808173ffffffffffffffffffffffffffffffffffffffff1660601b815250508060a0818152505050620000ec565b6000815190506200009681620000d2565b92915050565b600060208284031215620000af57600080fd5b6000620000bf8482850162000085565b91505092915050565b6000819050919050565b620000dd81620000c8565b8114620000e957600080fd5b50565b60805160601c60a051611be762000123600039600081816105fb01526106d20152600081816105d10152610a7e0152611be76000f3fe6080604052600436106100865760003560e01c8063bfb231d211610059578063bfb231d21461014f578063ca7dd37514610192578063d0e9c3be146101cf578063d38ea5bf146101f8578063fa00afc71461021457610086565b8063401b21681461008b57806365e17c9d146100ce5780636bfb0d01146100f95780637fd6f15c14610124575b600080fd5b34801561009757600080fd5b506100b260048036038101906100ad9190611159565b61023d565b6040516100c597969594939291906114ad565b60405180910390f35b3480156100da57600080fd5b506100e36105cf565b6040516100f0919061145b565b60405180910390f35b34801561010557600080fd5b5061010e6105f3565b60405161011b91906115e6565b60405180910390f35b34801561013057600080fd5b506101396105f9565b60405161014691906115e6565b60405180910390f35b34801561015b57600080fd5b50610176600480360381019061017191906112ff565b61061d565b6040516101899796959493929190611601565b60405180910390f35b34801561019e57600080fd5b506101b960048036038101906101b491906112ff565b6106cc565b6040516101c691906115e6565b60405180910390f35b3480156101db57600080fd5b506101f660048036038101906101f19190611182565b61072f565b005b610212600480360381019061020d91906112ff565b6108fb565b005b34801561022057600080fd5b5061023b600480360381019061023691906112b0565b610cc6565b005b60036020528060005260406000206000915090508060000160009054906101000a900473ffffffffffffffffffffffffffffffffffffffff169080600101805461028690611900565b80601f01602080910402602001604051908101604052809291908181526020018280546102b290611900565b80156102ff5780601f106102d4576101008083540402835291602001916102ff565b820191906000526020600020905b8154815290600101906020018083116102e257829003601f168201915b50505050509080600201805461031490611900565b80601f016020809104026020016040519081016040528092919081815260200182805461034090611900565b801561038d5780601f106103625761010080835404028352916020019161038d565b820191906000526020600020905b81548152906001019060200180831161037057829003601f168201915b5050505050908060030180546103a290611900565b80601f01602080910402602001604051908101604052809291908181526020018280546103ce90611900565b801561041b5780601f106103f05761010080835404028352916020019161041b565b820191906000526020600020905b8154815290600101906020018083116103fe57829003601f168201915b50505050509080600401805461043090611900565b80601f016020809104026020016040519081016040528092919081815260200182805461045c90611900565b80156104a95780601f1061047e576101008083540402835291602001916104a9565b820191906000526020600020905b81548152906001019060200180831161048c57829003601f168201915b5050505050908060050180546104be90611900565b80601f01602080910402602001604051908101604052809291908181526020018280546104ea90611900565b80156105375780601f1061050c57610100808354040283529160200191610537565b820191906000526020600020905b81548152906001019060200180831161051a57829003601f168201915b50505050509080600601805461054c90611900565b80601f016020809104026020016040519081016040528092919081815260200182805461057890611900565b80156105c55780601f1061059a576101008083540402835291602001916105c5565b820191906000526020600020905b8154815290600101906020018083116105a857829003601f168201915b5050505050905087565b7f000000000000000000000000000000000000000000000000000000000000000081565b60015481565b7f000000000000000000000000000000000000000000000000000000000000000081565b60026020528060005260406000206000915090508060000154908060010160009054906101000a900473ffffffffffffffffffffffffffffffffffffffff16908060020154908060030154908060040160009054906101000a900473ffffffffffffffffffffffffffffffffffffffff16908060050160009054906101000a900473ffffffffffffffffffffffffffffffffffffffff16908060050160149054906101000a900460ff16905087565b600060647f000000000000000000000000000000000000000000000000000000000000000060646106fd9190611719565b600260008581526020019081526020016000206003015461071e91906117a0565b610728919061176f565b9050919050565b6040518060e001604052808873ffffffffffffffffffffffffffffffffffffffff16815260200187815260200186815260200185815260200184815260200183815260200182815250600360008973ffffffffffffffffffffffffffffffffffffffff1673ffffffffffffffffffffffffffffffffffffffff16815260200190815260200160002060008201518160000160006101000a81548173ffffffffffffffffffffffffffffffffffffffff021916908373ffffffffffffffffffffffffffffffffffffffff160217905550602082015181600101908051906020019061081a92919061100f565b50604082015181600201908051906020019061083792919061100f565b50606082015181600301908051906020019061085492919061100f565b50608082015181600401908051906020019061087192919061100f565b5060a082015181600501908051906020019061088e92919061100f565b5060c08201518160060190805190602001906108ab92919061100f565b509050507f38951133c6d5b140c23f2a743fcd5dced1dda744e8d7e4769f09e6c2f3b22d93878787878787876040516108ea97969594939291906114ad565b60405180910390a150505050505050565b610903610fb5565b600061090e826106cc565b9050600060026000848152602001908152602001600020905060008311801561093957506001548311155b610978576040517f08c379a000000000000000000000000000000000000000000000000000000000815260040161096f906115a6565b60405180910390fd5b813410156109bb576040517f08c379a00000000000000000000000000000000000000000000000000000000081526004016109b290611586565b60405180910390fd5b8060050160149054906101000a900460ff1615610a0d576040517f08c379a0000000000000000000000000000000000000000000000000000000008152600401610a0490611546565b60405180910390fd5b8060040160009054906101000a900473ffffffffffffffffffffffffffffffffffffffff1673ffffffffffffffffffffffffffffffffffffffff166108fc82600301549081150290604051600060405180830381858888f19350505050158015610a7b573d6000803e3d6000fd5b507f000000000000000000000000000000000000000000000000000000000000000073ffffffffffffffffffffffffffffffffffffffff166108fc826003015484610ac691906117fa565b9081150290604051600060405180830381858888f19350505050158015610af1573d6000803e3d6000fd5b5060018160050160146101000a81548160ff021916908315150217905550338160050160006101000a81548173ffffffffffffffffffffffffffffffffffffffff021916908373ffffffffffffffffffffffffffffffffffffffff1602179055508060010160009054906101000a900473ffffffffffffffffffffffffffffffffffffffff1673ffffffffffffffffffffffffffffffffffffffff166323b872dd303384600201546040518463ffffffff1660e01b8152600401610bb793929190611476565b600060405180830381600087803b158015610bd157600080fd5b505af1158015610be5573d6000803e3d6000fd5b505050503373ffffffffffffffffffffffffffffffffffffffff168160040160009054906101000a900473ffffffffffffffffffffffffffffffffffffffff1673ffffffffffffffffffffffffffffffffffffffff168260010160009054906101000a900473ffffffffffffffffffffffffffffffffffffffff1673ffffffffffffffffffffffffffffffffffffffff167f8b4c9c8a607d67b321582dd8461041b1dc2ceeca70c8b7f37f8e02095cf2e76d8685600201548660030154604051610cb193929190611670565b60405180910390a45050610cc3611005565b50565b610cce610fb5565b60008111610d11576040517f08c379a0000000000000000000000000000000000000000000000000000000008152600401610d0890611566565b60405180910390fd5b60016000815480929190610d2490611963565b91905055508273ffffffffffffffffffffffffffffffffffffffff166323b872dd3330856040518463ffffffff1660e01b8152600401610d6693929190611476565b600060405180830381600087803b158015610d8057600080fd5b505af1158015610d94573d6000803e3d6000fd5b505050506040518060e0016040528060015481526020018473ffffffffffffffffffffffffffffffffffffffff1681526020018381526020018281526020013373ffffffffffffffffffffffffffffffffffffffff1681526020013373ffffffffffffffffffffffffffffffffffffffff168152602001600015158152506002600060015481526020019081526020016000206000820151816000015560208201518160010160006101000a81548173ffffffffffffffffffffffffffffffffffffffff021916908373ffffffffffffffffffffffffffffffffffffffff160217905550604082015181600201556060820151816003015560808201518160040160006101000a81548173ffffffffffffffffffffffffffffffffffffffff021916908373ffffffffffffffffffffffffffffffffffffffff16021790555060a08201518160050160006101000a81548173ffffffffffffffffffffffffffffffffffffffff021916908373ffffffffffffffffffffffffffffffffffffffff16021790555060c08201518160050160146101000a81548160ff0219169083151502179055509050503373ffffffffffffffffffffffffffffffffffffffff168373ffffffffffffffffffffffffffffffffffffffff167f655a0cf9c8db81512be9a76dc1c5ae5380b8816ce6ad659cd61b715e2999d59a6001548585604051610fa093929190611670565b60405180910390a3610fb0611005565b505050565b60026000541415610ffb576040517f08c379a0000000000000000000000000000000000000000000000000000000008152600401610ff2906115c6565b60405180910390fd5b6002600081905550565b6001600081905550565b82805461101b90611900565b90600052602060002090601f01602090048101928261103d5760008555611084565b82601f1061105657805160ff1916838001178555611084565b82800160010185558215611084579182015b82811115611083578251825591602001919060010190611068565b5b5090506110919190611095565b5090565b5b808211156110ae576000816000905550600101611096565b5090565b60006110c56110c0846116cc565b6116a7565b9050828152602081018484840111156110dd57600080fd5b6110e88482856118be565b509392505050565b6000813590506110ff81611b6c565b92915050565b60008135905061111481611b83565b92915050565b600082601f83011261112b57600080fd5b813561113b8482602086016110b2565b91505092915050565b60008135905061115381611b9a565b92915050565b60006020828403121561116b57600080fd5b6000611179848285016110f0565b91505092915050565b600080600080600080600060e0888a03121561119d57600080fd5b60006111ab8a828b016110f0565b975050602088013567ffffffffffffffff8111156111c857600080fd5b6111d48a828b0161111a565b965050604088013567ffffffffffffffff8111156111f157600080fd5b6111fd8a828b0161111a565b955050606088013567ffffffffffffffff81111561121a57600080fd5b6112268a828b0161111a565b945050608088013567ffffffffffffffff81111561124357600080fd5b61124f8a828b0161111a565b93505060a088013567ffffffffffffffff81111561126c57600080fd5b6112788a828b0161111a565b92505060c088013567ffffffffffffffff81111561129557600080fd5b6112a18a828b0161111a565b91505092959891949750929550565b6000806000606084860312156112c557600080fd5b60006112d386828701611105565b93505060206112e486828701611144565b92505060406112f586828701611144565b9150509250925092565b60006020828403121561131157600080fd5b600061131f84828501611144565b91505092915050565b61133181611840565b82525050565b6113408161182e565b82525050565b61134f81611852565b82525050565b61135e8161189a565b82525050565b600061136f826116fd565b6113798185611708565b93506113898185602086016118cd565b61139281611a68565b840191505092915050565b60006113aa601183611708565b91506113b582611a79565b602082019050919050565b60006113cd601f83611708565b91506113d882611aa2565b602082019050919050565b60006113f0603383611708565b91506113fb82611acb565b604082019050919050565b6000611413601283611708565b915061141e82611b1a565b602082019050919050565b6000611436601f83611708565b915061144182611b43565b602082019050919050565b61145581611890565b82525050565b60006020820190506114706000830184611328565b92915050565b600060608201905061148b6000830186611337565b6114986020830185611337565b6114a5604083018461144c565b949350505050565b600060e0820190506114c2600083018a611337565b81810360208301526114d48189611364565b905081810360408301526114e88188611364565b905081810360608301526114fc8187611364565b905081810360808301526115108186611364565b905081810360a08301526115248185611364565b905081810360c08301526115388184611364565b905098975050505050505050565b6000602082019050818103600083015261155f8161139d565b9050919050565b6000602082019050818103600083015261157f816113c0565b9050919050565b6000602082019050818103600083015261159f816113e3565b9050919050565b600060208201905081810360008301526115bf81611406565b9050919050565b600060208201905081810360008301526115df81611429565b9050919050565b60006020820190506115fb600083018461144c565b92915050565b600060e082019050611616600083018a61144c565b6116236020830189611355565b611630604083018861144c565b61163d606083018761144c565b61164a6080830186611328565b61165760a0830185611337565b61166460c0830184611346565b98975050505050505050565b6000606082019050611685600083018661144c565b611692602083018561144c565b61169f604083018461144c565b949350505050565b60006116b16116c2565b90506116bd8282611932565b919050565b6000604051905090565b600067ffffffffffffffff8211156116e7576116e6611a39565b5b6116f082611a68565b9050602081019050919050565b600081519050919050565b600082825260208201905092915050565b600061172482611890565b915061172f83611890565b9250827fffffffffffffffffffffffffffffffffffffffffffffffffffffffffffffffff03821115611764576117636119ac565b5b828201905092915050565b600061177a82611890565b915061178583611890565b925082611795576117946119db565b5b828204905092915050565b60006117ab82611890565b91506117b683611890565b9250817fffffffffffffffffffffffffffffffffffffffffffffffffffffffffffffffff04831182151516156117ef576117ee6119ac565b5b828202905092915050565b600061180582611890565b915061181083611890565b925082821015611823576118226119ac565b5b828203905092915050565b600061183982611870565b9050919050565b600061184b82611870565b9050919050565b60008115159050919050565b60006118698261182e565b9050919050565b600073ffffffffffffffffffffffffffffffffffffffff82169050919050565b6000819050919050565b60006118a5826118ac565b9050919050565b60006118b782611870565b9050919050565b82818337600083830152505050565b60005b838110156118eb5780820151818401526020810190506118d0565b838111156118fa576000848401525b50505050565b6000600282049050600182168061191857607f821691505b6020821081141561192c5761192b611a0a565b5b50919050565b61193b82611a68565b810181811067ffffffffffffffff8211171561195a57611959611a39565b5b80604052505050565b600061196e82611890565b91507fffffffffffffffffffffffffffffffffffffffffffffffffffffffffffffffff8214156119a1576119a06119ac565b5b600182019050919050565b7f4e487b7100000000000000000000000000000000000000000000000000000000600052601160045260246000fd5b7f4e487b7100000000000000000000000000000000000000000000000000000000600052601260045260246000fd5b7f4e487b7100000000000000000000000000000000000000000000000000000000600052602260045260246000fd5b7f4e487b7100000000000000000000000000000000000000000000000000000000600052604160045260246000fd5b6000601f19601f8301169050919050565b7f6974656d20616c726561647920736f6c64000000000000000000000000000000600082015250565b7f5072696365206d7573742062652067726561746572207468616e207a65726f00600082015250565b7f6e6f7420656e6f75676820657468657220746f20636f766572206974656d207060008201527f7269636520616e64206d61726b65742066656500000000000000000000000000602082015250565b7f6974656d20646f65736e27742065786973740000000000000000000000000000600082015250565b7f5265656e7472616e637947756172643a207265656e7472616e742063616c6c00600082015250565b611b758161182e565b8114611b8057600080fd5b50565b611b8c8161185e565b8114611b9757600080fd5b50565b611ba381611890565b8114611bae57600080fd5b5056fea26469706673582212205b655936f31e4354888e867a2bd8c7978a366d9d111a87afaa546531cd15f9b064736f6c63430008040033",
  "linkReferences": {},
  "deployedLinkReferences": {}
}