{
  "_format": "hh-sol-artifact-1",
  "contractName": "Marketplace",
  "sourceName": "src/backend/contracts/Marketplace.sol",
  "abi": [
    {
      "inputs": [
        {
          "internalType": "uint256",
          "name": "_feePercent",
          "type": "uint256"
        }
      ],
      "stateMutability": "nonpayable",
      "type": "constructor"
    },
    {
      "anonymous": false,
      "inputs": [
        {
          "indexed": false,
          "internalType": "uint256",
          "name": "itemId",
          "type": "uint256"
        },
        {
          "indexed": true,
          "internalType": "address",
          "name": "nft",
          "type": "address"
        },
        {
          "indexed": false,
          "internalType": "uint256",
          "name": "tokenId",
          "type": "uint256"
        },
        {
          "indexed": false,
          "internalType": "uint256",
          "name": "price",
          "type": "uint256"
        },
        {
          "indexed": true,
          "internalType": "address",
          "name": "seller",
          "type": "address"
        },
        {
          "indexed": true,
          "internalType": "address",
          "name": "buyer",
          "type": "address"
        }
      ],
      "name": "Bought",
      "type": "event"
    },
    {
      "anonymous": false,
      "inputs": [
        {
          "indexed": false,
          "internalType": "address",
          "name": "Id",
          "type": "address"
        },
        {
          "indexed": false,
          "internalType": "string",
          "name": "name",
          "type": "string"
        },
        {
          "indexed": false,
          "internalType": "string",
          "name": "govtId",
          "type": "string"
        },
        {
          "indexed": false,
          "internalType": "string",
          "name": "location",
          "type": "string"
        },
        {
          "indexed": false,
          "internalType": "string",
          "name": "contact",
          "type": "string"
        },
        {
          "indexed": false,
          "internalType": "string",
          "name": "pin",
          "type": "string"
        }
      ],
      "name": "FarmerAdded",
      "type": "event"
    },
    {
      "anonymous": false,
      "inputs": [
        {
          "indexed": false,
          "internalType": "uint256",
          "name": "itemId",
          "type": "uint256"
        },
        {
          "indexed": true,
          "internalType": "address",
          "name": "nft",
          "type": "address"
        },
        {
          "indexed": false,
          "internalType": "uint256",
          "name": "tokenId",
          "type": "uint256"
        },
        {
          "indexed": false,
          "internalType": "uint256",
          "name": "price",
          "type": "uint256"
        },
        {
          "indexed": true,
          "internalType": "address",
          "name": "seller",
          "type": "address"
        }
      ],
      "name": "Offered",
      "type": "event"
    },
    {
      "inputs": [
        {
          "internalType": "address",
          "name": "_id",
          "type": "address"
        },
        {
          "internalType": "string",
          "name": "_name",
          "type": "string"
        },
        {
          "internalType": "string",
          "name": "_govtId",
          "type": "string"
        },
        {
          "internalType": "string",
          "name": "_location",
          "type": "string"
        },
        {
          "internalType": "string",
          "name": "_contact",
          "type": "string"
        },
        {
          "internalType": "string",
          "name": "_pin",
          "type": "string"
        }
      ],
      "name": "create_Farmer",
      "outputs": [],
      "stateMutability": "nonpayable",
      "type": "function"
    },
    {
      "inputs": [
        {
          "internalType": "address",
          "name": "",
          "type": "address"
        }
      ],
      "name": "farmers",
      "outputs": [
        {
          "internalType": "address",
          "name": "Id",
          "type": "address"
        },
        {
          "internalType": "string",
          "name": "name",
          "type": "string"
        },
        {
          "internalType": "string",
          "name": "govtId",
          "type": "string"
        },
        {
          "internalType": "string",
          "name": "location",
          "type": "string"
        },
        {
          "internalType": "string",
          "name": "contact",
          "type": "string"
        },
        {
          "internalType": "string",
          "name": "pin",
          "type": "string"
        }
      ],
      "stateMutability": "view",
      "type": "function"
    },
    {
      "inputs": [],
      "name": "feeAccount",
      "outputs": [
        {
          "internalType": "address payable",
          "name": "",
          "type": "address"
        }
      ],
      "stateMutability": "view",
      "type": "function"
    },
    {
      "inputs": [],
      "name": "feePercent",
      "outputs": [
        {
          "internalType": "uint256",
          "name": "",
          "type": "uint256"
        }
      ],
      "stateMutability": "view",
      "type": "function"
    },
    {
      "inputs": [
        {
          "internalType": "uint256",
          "name": "_itemId",
          "type": "uint256"
        }
      ],
      "name": "getTotalPrice",
      "outputs": [
        {
          "internalType": "uint256",
          "name": "",
          "type": "uint256"
        }
      ],
      "stateMutability": "view",
      "type": "function"
    },
    {
      "inputs": [],
      "name": "itemCount",
      "outputs": [
        {
          "internalType": "uint256",
          "name": "",
          "type": "uint256"
        }
      ],
      "stateMutability": "view",
      "type": "function"
    },
    {
      "inputs": [
        {
          "internalType": "uint256",
          "name": "",
          "type": "uint256"
        }
      ],
      "name": "items",
      "outputs": [
        {
          "internalType": "uint256",
          "name": "itemId",
          "type": "uint256"
        },
        {
          "internalType": "contract IERC721",
          "name": "nft",
          "type": "address"
        },
        {
          "internalType": "uint256",
          "name": "tokenId",
          "type": "uint256"
        },
        {
          "internalType": "uint256",
          "name": "price",
          "type": "uint256"
        },
        {
          "internalType": "address payable",
          "name": "seller",
          "type": "address"
        },
        {
          "internalType": "address",
          "name": "owner",
          "type": "address"
        },
        {
          "internalType": "bool",
          "name": "sold",
          "type": "bool"
        }
      ],
      "stateMutability": "view",
      "type": "function"
    },
    {
      "inputs": [
        {
          "internalType": "contract IERC721",
          "name": "_nft",
          "type": "address"
        },
        {
          "internalType": "uint256",
          "name": "_tokenId",
          "type": "uint256"
        },
        {
          "internalType": "uint256",
          "name": "_price",
          "type": "uint256"
        }
      ],
      "name": "makeItem",
      "outputs": [],
      "stateMutability": "nonpayable",
      "type": "function"
    },
    {
      "inputs": [
        {
          "internalType": "uint256",
          "name": "_itemId",
          "type": "uint256"
        }
      ],
      "name": "purchaseItem",
      "outputs": [],
      "stateMutability": "payable",
      "type": "function"
    }
  ],
  "bytecode": "0x60c06040523480156200001157600080fd5b5060405162001c4538038062001c4583398181016040528101906200003791906200009c565b60016000819055503373ffffffffffffffffffffffffffffffffffffffff1660808173ffffffffffffffffffffffffffffffffffffffff1660601b815250508060a0818152505050620000ec565b6000815190506200009681620000d2565b92915050565b600060208284031215620000af57600080fd5b6000620000bf8482850162000085565b91505092915050565b6000819050919050565b620000dd81620000c8565b8114620000e957600080fd5b50565b60805160601c60a051611b22620001236000396000818161056c01526107e90152600081816105420152610a0f0152611b226000f3fe6080604052600436106100865760003560e01c8063b870b85111610059578063b870b8511461014e578063bfb231d214610177578063ca7dd375146101ba578063d38ea5bf146101f7578063fa00afc71461021357610086565b8063401b21681461008b57806365e17c9d146100cd5780636bfb0d01146100f85780637fd6f15c14610123575b600080fd5b34801561009757600080fd5b506100b260048036038101906100ad91906110d6565b61023c565b6040516100c4969594939291906113fd565b60405180910390f35b3480156100d957600080fd5b506100e2610540565b6040516100ef91906113ab565b60405180910390f35b34801561010457600080fd5b5061010d610564565b60405161011a9190611521565b60405180910390f35b34801561012f57600080fd5b5061013861056a565b6040516101459190611521565b60405180910390f35b34801561015a57600080fd5b50610175600480360381019061017091906110ff565b61058e565b005b34801561018357600080fd5b5061019e6004803603810190610199919061124f565b610734565b6040516101b1979695949392919061153c565b60405180910390f35b3480156101c657600080fd5b506101e160048036038101906101dc919061124f565b6107e3565b6040516101ee9190611521565b60405180910390f35b610211600480360381019061020c919061124f565b610846565b005b34801561021f57600080fd5b5061023a60048036038101906102359190611200565b610c57565b005b60036020528060005260406000206000915090508060000160009054906101000a900473ffffffffffffffffffffffffffffffffffffffff16908060010180546102859061183b565b80601f01602080910402602001604051908101604052809291908181526020018280546102b19061183b565b80156102fe5780601f106102d3576101008083540402835291602001916102fe565b820191906000526020600020905b8154815290600101906020018083116102e157829003601f168201915b5050505050908060020180546103139061183b565b80601f016020809104026020016040519081016040528092919081815260200182805461033f9061183b565b801561038c5780601f106103615761010080835404028352916020019161038c565b820191906000526020600020905b81548152906001019060200180831161036f57829003601f168201915b5050505050908060030180546103a19061183b565b80601f01602080910402602001604051908101604052809291908181526020018280546103cd9061183b565b801561041a5780601f106103ef5761010080835404028352916020019161041a565b820191906000526020600020905b8154815290600101906020018083116103fd57829003601f168201915b50505050509080600401805461042f9061183b565b80601f016020809104026020016040519081016040528092919081815260200182805461045b9061183b565b80156104a85780601f1061047d576101008083540402835291602001916104a8565b820191906000526020600020905b81548152906001019060200180831161048b57829003601f168201915b5050505050908060050180546104bd9061183b565b80601f01602080910402602001604051908101604052809291908181526020018280546104e99061183b565b80156105365780601f1061050b57610100808354040283529160200191610536565b820191906000526020600020905b81548152906001019060200180831161051957829003601f168201915b5050505050905086565b7f000000000000000000000000000000000000000000000000000000000000000081565b60015481565b7f000000000000000000000000000000000000000000000000000000000000000081565b6040518060c001604052808773ffffffffffffffffffffffffffffffffffffffff16815260200186815260200185815260200184815260200183815260200182815250600360008873ffffffffffffffffffffffffffffffffffffffff1673ffffffffffffffffffffffffffffffffffffffff16815260200190815260200160002060008201518160000160006101000a81548173ffffffffffffffffffffffffffffffffffffffff021916908373ffffffffffffffffffffffffffffffffffffffff1602179055506020820151816001019080519060200190610673929190610f8c565b506040820151816002019080519060200190610690929190610f8c565b5060608201518160030190805190602001906106ad929190610f8c565b5060808201518160040190805190602001906106ca929190610f8c565b5060a08201518160050190805190602001906106e7929190610f8c565b509050507f2966431146fa536320fc1e4cd9ec6cf9b3dca17c29fc82f7dbac93cf26cd6086868686868686604051610724969594939291906113fd565b60405180910390a1505050505050565b60026020528060005260406000206000915090508060000154908060010160009054906101000a900473ffffffffffffffffffffffffffffffffffffffff16908060020154908060030154908060040160009054906101000a900473ffffffffffffffffffffffffffffffffffffffff16908060050160009054906101000a900473ffffffffffffffffffffffffffffffffffffffff16908060050160149054906101000a900460ff16905087565b600060647f000000000000000000000000000000000000000000000000000000000000000060646108149190611654565b600260008581526020019081526020016000206003015461083591906116db565b61083f91906116aa565b9050919050565b6002600054141561088c576040517f08c379a000000000000000000000000000000000000000000000000000000000815260040161088390611501565b60405180910390fd5b6002600081905550600061089f826107e3565b905060006002600084815260200190815260200160002090506000831180156108ca57506001548311155b610909576040517f08c379a0000000000000000000000000000000000000000000000000000000008152600401610900906114e1565b60405180910390fd5b8134101561094c576040517f08c379a0000000000000000000000000000000000000000000000000000000008152600401610943906114c1565b60405180910390fd5b8060050160149054906101000a900460ff161561099e576040517f08c379a000000000000000000000000000000000000000000000000000000000815260040161099590611481565b60405180910390fd5b8060040160009054906101000a900473ffffffffffffffffffffffffffffffffffffffff1673ffffffffffffffffffffffffffffffffffffffff166108fc82600301549081150290604051600060405180830381858888f19350505050158015610a0c573d6000803e3d6000fd5b507f000000000000000000000000000000000000000000000000000000000000000073ffffffffffffffffffffffffffffffffffffffff166108fc826003015484610a579190611735565b9081150290604051600060405180830381858888f19350505050158015610a82573d6000803e3d6000fd5b5060018160050160146101000a81548160ff021916908315150217905550338160050160006101000a81548173ffffffffffffffffffffffffffffffffffffffff021916908373ffffffffffffffffffffffffffffffffffffffff1602179055508060010160009054906101000a900473ffffffffffffffffffffffffffffffffffffffff1673ffffffffffffffffffffffffffffffffffffffff166323b872dd303384600201546040518463ffffffff1660e01b8152600401610b48939291906113c6565b600060405180830381600087803b158015610b6257600080fd5b505af1158015610b76573d6000803e3d6000fd5b505050503373ffffffffffffffffffffffffffffffffffffffff168160040160009054906101000a900473ffffffffffffffffffffffffffffffffffffffff1673ffffffffffffffffffffffffffffffffffffffff168260010160009054906101000a900473ffffffffffffffffffffffffffffffffffffffff1673ffffffffffffffffffffffffffffffffffffffff167f8b4c9c8a607d67b321582dd8461041b1dc2ceeca70c8b7f37f8e02095cf2e76d8685600201548660030154604051610c42939291906115ab565b60405180910390a45050600160008190555050565b60026000541415610c9d576040517f08c379a0000000000000000000000000000000000000000000000000000000008152600401610c9490611501565b60405180910390fd5b600260008190555060008111610ce8576040517f08c379a0000000000000000000000000000000000000000000000000000000008152600401610cdf906114a1565b60405180910390fd5b60016000815480929190610cfb9061189e565b91905055508273ffffffffffffffffffffffffffffffffffffffff166323b872dd3330856040518463ffffffff1660e01b8152600401610d3d939291906113c6565b600060405180830381600087803b158015610d5757600080fd5b505af1158015610d6b573d6000803e3d6000fd5b505050506040518060e0016040528060015481526020018473ffffffffffffffffffffffffffffffffffffffff1681526020018381526020018281526020013373ffffffffffffffffffffffffffffffffffffffff1681526020013373ffffffffffffffffffffffffffffffffffffffff168152602001600015158152506002600060015481526020019081526020016000206000820151816000015560208201518160010160006101000a81548173ffffffffffffffffffffffffffffffffffffffff021916908373ffffffffffffffffffffffffffffffffffffffff160217905550604082015181600201556060820151816003015560808201518160040160006101000a81548173ffffffffffffffffffffffffffffffffffffffff021916908373ffffffffffffffffffffffffffffffffffffffff16021790555060a08201518160050160006101000a81548173ffffffffffffffffffffffffffffffffffffffff021916908373ffffffffffffffffffffffffffffffffffffffff16021790555060c08201518160050160146101000a81548160ff0219169083151502179055509050503373ffffffffffffffffffffffffffffffffffffffff168373ffffffffffffffffffffffffffffffffffffffff167f655a0cf9c8db81512be9a76dc1c5ae5380b8816ce6ad659cd61b715e2999d59a6001548585604051610f77939291906115ab565b60405180910390a36001600081905550505050565b828054610f989061183b565b90600052602060002090601f016020900481019282610fba5760008555611001565b82601f10610fd357805160ff1916838001178555611001565b82800160010185558215611001579182015b82811115611000578251825591602001919060010190610fe5565b5b50905061100e9190611012565b5090565b5b8082111561102b576000816000905550600101611013565b5090565b600061104261103d84611607565b6115e2565b90508281526020810184848401111561105a57600080fd5b6110658482856117f9565b509392505050565b60008135905061107c81611aa7565b92915050565b60008135905061109181611abe565b92915050565b600082601f8301126110a857600080fd5b81356110b884826020860161102f565b91505092915050565b6000813590506110d081611ad5565b92915050565b6000602082840312156110e857600080fd5b60006110f68482850161106d565b91505092915050565b60008060008060008060c0878903121561111857600080fd5b600061112689828a0161106d565b965050602087013567ffffffffffffffff81111561114357600080fd5b61114f89828a01611097565b955050604087013567ffffffffffffffff81111561116c57600080fd5b61117889828a01611097565b945050606087013567ffffffffffffffff81111561119557600080fd5b6111a189828a01611097565b935050608087013567ffffffffffffffff8111156111be57600080fd5b6111ca89828a01611097565b92505060a087013567ffffffffffffffff8111156111e757600080fd5b6111f389828a01611097565b9150509295509295509295565b60008060006060848603121561121557600080fd5b600061122386828701611082565b9350506020611234868287016110c1565b9250506040611245868287016110c1565b9150509250925092565b60006020828403121561126157600080fd5b600061126f848285016110c1565b91505092915050565b6112818161177b565b82525050565b61129081611769565b82525050565b61129f8161178d565b82525050565b6112ae816117d5565b82525050565b60006112bf82611638565b6112c98185611643565b93506112d9818560208601611808565b6112e2816119a3565b840191505092915050565b60006112fa601183611643565b9150611305826119b4565b602082019050919050565b600061131d601f83611643565b9150611328826119dd565b602082019050919050565b6000611340603383611643565b915061134b82611a06565b604082019050919050565b6000611363601283611643565b915061136e82611a55565b602082019050919050565b6000611386601f83611643565b915061139182611a7e565b602082019050919050565b6113a5816117cb565b82525050565b60006020820190506113c06000830184611278565b92915050565b60006060820190506113db6000830186611287565b6113e86020830185611287565b6113f5604083018461139c565b949350505050565b600060c0820190506114126000830189611287565b818103602083015261142481886112b4565b9050818103604083015261143881876112b4565b9050818103606083015261144c81866112b4565b9050818103608083015261146081856112b4565b905081810360a083015261147481846112b4565b9050979650505050505050565b6000602082019050818103600083015261149a816112ed565b9050919050565b600060208201905081810360008301526114ba81611310565b9050919050565b600060208201905081810360008301526114da81611333565b9050919050565b600060208201905081810360008301526114fa81611356565b9050919050565b6000602082019050818103600083015261151a81611379565b9050919050565b6000602082019050611536600083018461139c565b92915050565b600060e082019050611551600083018a61139c565b61155e60208301896112a5565b61156b604083018861139c565b611578606083018761139c565b6115856080830186611278565b61159260a0830185611287565b61159f60c0830184611296565b98975050505050505050565b60006060820190506115c0600083018661139c565b6115cd602083018561139c565b6115da604083018461139c565b949350505050565b60006115ec6115fd565b90506115f8828261186d565b919050565b6000604051905090565b600067ffffffffffffffff82111561162257611621611974565b5b61162b826119a3565b9050602081019050919050565b600081519050919050565b600082825260208201905092915050565b600061165f826117cb565b915061166a836117cb565b9250827fffffffffffffffffffffffffffffffffffffffffffffffffffffffffffffffff0382111561169f5761169e6118e7565b5b828201905092915050565b60006116b5826117cb565b91506116c0836117cb565b9250826116d0576116cf611916565b5b828204905092915050565b60006116e6826117cb565b91506116f1836117cb565b9250817fffffffffffffffffffffffffffffffffffffffffffffffffffffffffffffffff048311821515161561172a576117296118e7565b5b828202905092915050565b6000611740826117cb565b915061174b836117cb565b92508282101561175e5761175d6118e7565b5b828203905092915050565b6000611774826117ab565b9050919050565b6000611786826117ab565b9050919050565b60008115159050919050565b60006117a482611769565b9050919050565b600073ffffffffffffffffffffffffffffffffffffffff82169050919050565b6000819050919050565b60006117e0826117e7565b9050919050565b60006117f2826117ab565b9050919050565b82818337600083830152505050565b60005b8381101561182657808201518184015260208101905061180b565b83811115611835576000848401525b50505050565b6000600282049050600182168061185357607f821691505b6020821081141561186757611866611945565b5b50919050565b611876826119a3565b810181811067ffffffffffffffff8211171561189557611894611974565b5b80604052505050565b60006118a9826117cb565b91507fffffffffffffffffffffffffffffffffffffffffffffffffffffffffffffffff8214156118dc576118db6118e7565b5b600182019050919050565b7f4e487b7100000000000000000000000000000000000000000000000000000000600052601160045260246000fd5b7f4e487b7100000000000000000000000000000000000000000000000000000000600052601260045260246000fd5b7f4e487b7100000000000000000000000000000000000000000000000000000000600052602260045260246000fd5b7f4e487b7100000000000000000000000000000000000000000000000000000000600052604160045260246000fd5b6000601f19601f8301169050919050565b7f6974656d20616c726561647920736f6c64000000000000000000000000000000600082015250565b7f5072696365206d7573742062652067726561746572207468616e207a65726f00600082015250565b7f6e6f7420656e6f75676820657468657220746f20636f766572206974656d207060008201527f7269636520616e64206d61726b65742066656500000000000000000000000000602082015250565b7f6974656d20646f65736e27742065786973740000000000000000000000000000600082015250565b7f5265656e7472616e637947756172643a207265656e7472616e742063616c6c00600082015250565b611ab081611769565b8114611abb57600080fd5b50565b611ac781611799565b8114611ad257600080fd5b50565b611ade816117cb565b8114611ae957600080fd5b5056fea26469706673582212209c01a3ff048786547d9886031d904f5ecb78d1bb5e5efefc6d2dfac6e1b9f78d64736f6c63430008040033",
  "linkReferences": {},
  "deployedLinkReferences": {}
}