{
  "_format": "hh-sol-artifact-1",
  "contractName": "Marketplace",
  "sourceName": "src/backend/contracts/Marketplace.sol",
  "abi": [
    {
      "inputs": [
        {
          "internalType": "uint256",
          "name": "_feePercent",
          "type": "uint256"
        }
      ],
      "stateMutability": "nonpayable",
      "type": "constructor"
    },
    {
      "anonymous": false,
      "inputs": [
        {
          "indexed": false,
          "internalType": "uint256",
          "name": "itemId",
          "type": "uint256"
        },
        {
          "indexed": true,
          "internalType": "address",
          "name": "nft",
          "type": "address"
        },
        {
          "indexed": false,
          "internalType": "uint256",
          "name": "tokenId",
          "type": "uint256"
        },
        {
          "indexed": false,
          "internalType": "uint256",
          "name": "price",
          "type": "uint256"
        },
        {
          "indexed": true,
          "internalType": "address",
          "name": "seller",
          "type": "address"
        },
        {
          "indexed": true,
          "internalType": "address",
          "name": "buyer",
          "type": "address"
        }
      ],
      "name": "Bought",
      "type": "event"
    },
    {
      "anonymous": false,
      "inputs": [
        {
          "indexed": false,
          "internalType": "uint256",
          "name": "itemId",
          "type": "uint256"
        },
        {
          "indexed": true,
          "internalType": "address",
          "name": "nft",
          "type": "address"
        },
        {
          "indexed": false,
          "internalType": "uint256",
          "name": "tokenId",
          "type": "uint256"
        },
        {
          "indexed": false,
          "internalType": "uint256",
          "name": "price",
          "type": "uint256"
        },
        {
          "indexed": true,
          "internalType": "address",
          "name": "seller",
          "type": "address"
        }
      ],
      "name": "Offered",
      "type": "event"
    },
    {
      "inputs": [],
      "name": "feeAccount",
      "outputs": [
        {
          "internalType": "address payable",
          "name": "",
          "type": "address"
        }
      ],
      "stateMutability": "view",
      "type": "function"
    },
    {
      "inputs": [],
      "name": "feePercent",
      "outputs": [
        {
          "internalType": "uint256",
          "name": "",
          "type": "uint256"
        }
      ],
      "stateMutability": "view",
      "type": "function"
    },
    {
      "inputs": [
        {
          "internalType": "uint256",
          "name": "_itemId",
          "type": "uint256"
        }
      ],
      "name": "getTotalPrice",
      "outputs": [
        {
          "internalType": "uint256",
          "name": "",
          "type": "uint256"
        }
      ],
      "stateMutability": "view",
      "type": "function"
    },
    {
      "inputs": [],
      "name": "itemCount",
      "outputs": [
        {
          "internalType": "uint256",
          "name": "",
          "type": "uint256"
        }
      ],
      "stateMutability": "view",
      "type": "function"
    },
    {
      "inputs": [
        {
          "internalType": "uint256",
          "name": "",
          "type": "uint256"
        }
      ],
      "name": "items",
      "outputs": [
        {
          "internalType": "uint256",
          "name": "itemId",
          "type": "uint256"
        },
        {
          "internalType": "contract IERC721",
          "name": "nft",
          "type": "address"
        },
        {
          "internalType": "uint256",
          "name": "tokenId",
          "type": "uint256"
        },
        {
          "internalType": "uint256",
          "name": "price",
          "type": "uint256"
        },
        {
          "internalType": "address payable",
          "name": "seller",
          "type": "address"
        },
        {
          "internalType": "address",
          "name": "owner",
          "type": "address"
        },
        {
          "internalType": "bool",
          "name": "sold",
          "type": "bool"
        }
      ],
      "stateMutability": "view",
      "type": "function"
    },
    {
      "inputs": [
        {
          "internalType": "contract IERC721",
          "name": "_nft",
          "type": "address"
        },
        {
          "internalType": "uint256",
          "name": "_tokenId",
          "type": "uint256"
        },
        {
          "internalType": "uint256",
          "name": "_price",
          "type": "uint256"
        }
      ],
      "name": "makeItem",
      "outputs": [],
      "stateMutability": "nonpayable",
      "type": "function"
    },
    {
      "inputs": [
        {
          "internalType": "uint256",
          "name": "_itemId",
          "type": "uint256"
        }
      ],
      "name": "purchaseItem",
      "outputs": [],
      "stateMutability": "payable",
      "type": "function"
    }
  ],
  "bytecode": "0x60c060405234801561001057600080fd5b5060405161127838038061127883398181016040528101906100329190610094565b60016000819055503373ffffffffffffffffffffffffffffffffffffffff1660808173ffffffffffffffffffffffffffffffffffffffff1660601b815250508060a08181525050506100de565b60008151905061008e816100c7565b92915050565b6000602082840312156100a657600080fd5b60006100b48482850161007f565b91505092915050565b6000819050919050565b6100d0816100bd565b81146100db57600080fd5b50565b60805160601c60a051611164610114600039600081816101e701526102be0152600081816101bd01526104e401526111646000f3fe6080604052600436106100705760003560e01c8063bfb231d21161004e578063bfb231d2146100f6578063ca7dd37514610139578063d38ea5bf14610176578063fa00afc71461019257610070565b806365e17c9d146100755780636bfb0d01146100a05780637fd6f15c146100cb575b600080fd5b34801561008157600080fd5b5061008a6101bb565b6040516100979190610bfd565b60405180910390f35b3480156100ac57600080fd5b506100b56101df565b6040516100c29190610cef565b60405180910390f35b3480156100d757600080fd5b506100e06101e5565b6040516100ed9190610cef565b60405180910390f35b34801561010257600080fd5b5061011d60048036038101906101189190610ada565b610209565b6040516101309796959493929190610d0a565b60405180910390f35b34801561014557600080fd5b50610160600480360381019061015b9190610ada565b6102b8565b60405161016d9190610cef565b60405180910390f35b610190600480360381019061018b9190610ada565b61031b565b005b34801561019e57600080fd5b506101b960048036038101906101b49190610a8b565b61072c565b005b7f000000000000000000000000000000000000000000000000000000000000000081565b60015481565b7f000000000000000000000000000000000000000000000000000000000000000081565b60026020528060005260406000206000915090508060000154908060010160009054906101000a900473ffffffffffffffffffffffffffffffffffffffff16908060020154908060030154908060040160009054906101000a900473ffffffffffffffffffffffffffffffffffffffff16908060050160009054906101000a900473ffffffffffffffffffffffffffffffffffffffff16908060050160149054906101000a900460ff16905087565b600060647f000000000000000000000000000000000000000000000000000000000000000060646102e99190610dc1565b600260008581526020019081526020016000206003015461030a9190610e48565b6103149190610e17565b9050919050565b60026000541415610361576040517f08c379a000000000000000000000000000000000000000000000000000000000815260040161035890610ccf565b60405180910390fd5b60026000819055506000610374826102b8565b9050600060026000848152602001908152602001600020905060008311801561039f57506001548311155b6103de576040517f08c379a00000000000000000000000000000000000000000000000000000000081526004016103d590610caf565b60405180910390fd5b81341015610421576040517f08c379a000000000000000000000000000000000000000000000000000000000815260040161041890610c8f565b60405180910390fd5b8060050160149054906101000a900460ff1615610473576040517f08c379a000000000000000000000000000000000000000000000000000000000815260040161046a90610c4f565b60405180910390fd5b8060040160009054906101000a900473ffffffffffffffffffffffffffffffffffffffff1673ffffffffffffffffffffffffffffffffffffffff166108fc82600301549081150290604051600060405180830381858888f193505050501580156104e1573d6000803e3d6000fd5b507f000000000000000000000000000000000000000000000000000000000000000073ffffffffffffffffffffffffffffffffffffffff166108fc82600301548461052c9190610ea2565b9081150290604051600060405180830381858888f19350505050158015610557573d6000803e3d6000fd5b5060018160050160146101000a81548160ff021916908315150217905550338160050160006101000a81548173ffffffffffffffffffffffffffffffffffffffff021916908373ffffffffffffffffffffffffffffffffffffffff1602179055508060010160009054906101000a900473ffffffffffffffffffffffffffffffffffffffff1673ffffffffffffffffffffffffffffffffffffffff166323b872dd303384600201546040518463ffffffff1660e01b815260040161061d93929190610c18565b600060405180830381600087803b15801561063757600080fd5b505af115801561064b573d6000803e3d6000fd5b505050503373ffffffffffffffffffffffffffffffffffffffff168160040160009054906101000a900473ffffffffffffffffffffffffffffffffffffffff1673ffffffffffffffffffffffffffffffffffffffff168260010160009054906101000a900473ffffffffffffffffffffffffffffffffffffffff1673ffffffffffffffffffffffffffffffffffffffff167f8b4c9c8a607d67b321582dd8461041b1dc2ceeca70c8b7f37f8e02095cf2e76d868560020154866003015460405161071793929190610d79565b60405180910390a45050600160008190555050565b60026000541415610772576040517f08c379a000000000000000000000000000000000000000000000000000000000815260040161076990610ccf565b60405180910390fd5b6002600081905550600081116107bd576040517f08c379a00000000000000000000000000000000000000000000000000000000081526004016107b490610c6f565b60405180910390fd5b600160008154809291906107d090610f66565b91905055508273ffffffffffffffffffffffffffffffffffffffff166323b872dd3330856040518463ffffffff1660e01b815260040161081293929190610c18565b600060405180830381600087803b15801561082c57600080fd5b505af1158015610840573d6000803e3d6000fd5b505050506040518060e0016040528060015481526020018473ffffffffffffffffffffffffffffffffffffffff1681526020018381526020018281526020013373ffffffffffffffffffffffffffffffffffffffff1681526020013373ffffffffffffffffffffffffffffffffffffffff168152602001600015158152506002600060015481526020019081526020016000206000820151816000015560208201518160010160006101000a81548173ffffffffffffffffffffffffffffffffffffffff021916908373ffffffffffffffffffffffffffffffffffffffff160217905550604082015181600201556060820151816003015560808201518160040160006101000a81548173ffffffffffffffffffffffffffffffffffffffff021916908373ffffffffffffffffffffffffffffffffffffffff16021790555060a08201518160050160006101000a81548173ffffffffffffffffffffffffffffffffffffffff021916908373ffffffffffffffffffffffffffffffffffffffff16021790555060c08201518160050160146101000a81548160ff0219169083151502179055509050503373ffffffffffffffffffffffffffffffffffffffff168373ffffffffffffffffffffffffffffffffffffffff167f655a0cf9c8db81512be9a76dc1c5ae5380b8816ce6ad659cd61b715e2999d59a6001548585604051610a4c93929190610d79565b60405180910390a36001600081905550505050565b600081359050610a7081611100565b92915050565b600081359050610a8581611117565b92915050565b600080600060608486031215610aa057600080fd5b6000610aae86828701610a61565b9350506020610abf86828701610a76565b9250506040610ad086828701610a76565b9150509250925092565b600060208284031215610aec57600080fd5b6000610afa84828501610a76565b91505092915050565b610b0c81610ee8565b82525050565b610b1b81610ed6565b82525050565b610b2a81610efa565b82525050565b610b3981610f42565b82525050565b6000610b4c601183610db0565b9150610b578261100d565b602082019050919050565b6000610b6f601f83610db0565b9150610b7a82611036565b602082019050919050565b6000610b92603383610db0565b9150610b9d8261105f565b604082019050919050565b6000610bb5601283610db0565b9150610bc0826110ae565b602082019050919050565b6000610bd8601f83610db0565b9150610be3826110d7565b602082019050919050565b610bf781610f38565b82525050565b6000602082019050610c126000830184610b03565b92915050565b6000606082019050610c2d6000830186610b12565b610c3a6020830185610b12565b610c476040830184610bee565b949350505050565b60006020820190508181036000830152610c6881610b3f565b9050919050565b60006020820190508181036000830152610c8881610b62565b9050919050565b60006020820190508181036000830152610ca881610b85565b9050919050565b60006020820190508181036000830152610cc881610ba8565b9050919050565b60006020820190508181036000830152610ce881610bcb565b9050919050565b6000602082019050610d046000830184610bee565b92915050565b600060e082019050610d1f600083018a610bee565b610d2c6020830189610b30565b610d396040830188610bee565b610d466060830187610bee565b610d536080830186610b03565b610d6060a0830185610b12565b610d6d60c0830184610b21565b98975050505050505050565b6000606082019050610d8e6000830186610bee565b610d9b6020830185610bee565b610da86040830184610bee565b949350505050565b600082825260208201905092915050565b6000610dcc82610f38565b9150610dd783610f38565b9250827fffffffffffffffffffffffffffffffffffffffffffffffffffffffffffffffff03821115610e0c57610e0b610faf565b5b828201905092915050565b6000610e2282610f38565b9150610e2d83610f38565b925082610e3d57610e3c610fde565b5b828204905092915050565b6000610e5382610f38565b9150610e5e83610f38565b9250817fffffffffffffffffffffffffffffffffffffffffffffffffffffffffffffffff0483118215151615610e9757610e96610faf565b5b828202905092915050565b6000610ead82610f38565b9150610eb883610f38565b925082821015610ecb57610eca610faf565b5b828203905092915050565b6000610ee182610f18565b9050919050565b6000610ef382610f18565b9050919050565b60008115159050919050565b6000610f1182610ed6565b9050919050565b600073ffffffffffffffffffffffffffffffffffffffff82169050919050565b6000819050919050565b6000610f4d82610f54565b9050919050565b6000610f5f82610f18565b9050919050565b6000610f7182610f38565b91507fffffffffffffffffffffffffffffffffffffffffffffffffffffffffffffffff821415610fa457610fa3610faf565b5b600182019050919050565b7f4e487b7100000000000000000000000000000000000000000000000000000000600052601160045260246000fd5b7f4e487b7100000000000000000000000000000000000000000000000000000000600052601260045260246000fd5b7f6974656d20616c726561647920736f6c64000000000000000000000000000000600082015250565b7f5072696365206d7573742062652067726561746572207468616e207a65726f00600082015250565b7f6e6f7420656e6f75676820657468657220746f20636f766572206974656d207060008201527f7269636520616e64206d61726b65742066656500000000000000000000000000602082015250565b7f6974656d20646f65736e27742065786973740000000000000000000000000000600082015250565b7f5265656e7472616e637947756172643a207265656e7472616e742063616c6c00600082015250565b61110981610f06565b811461111457600080fd5b50565b61112081610f38565b811461112b57600080fd5b5056fea26469706673582212204091cc27e4db5890c5608229aa255a9f03a74a277e1adba108994dc242a1d53164736f6c63430008040033",
  "linkReferences": {},
  "deployedLinkReferences": {}
}